:020000040000FA
:100000000C9424030C944C030C944C030C944C035C
:100010000C944C030C944C030C944C030C944C0324
:100020000C944C030C944C030C944C030C944C0314
:100030000C944C030C944C030C944C030C944C0304
:100040000C94DC120C944C030C94AA120C948412A1
:100050000C944C030C944C030C944C030C944C03E4
:100060000C9426130C944C0305A84CCDB2D44EB975
:100070003836A9020C50B9918688083CA6AAAA2A4B
:10008000BE000000803F00000000003E5B4F5B3E72
:100090003E6B4F6B3E1C3E7C3E1C183C7E3C181C4D
:1000A000577D571C1C5E7F5E1C00183C1800FFE744
:1000B000C3E7FF0018241800FFE7DBE7FF30483AEA
:1000C000060E2629792926407F050507407F05254C
:1000D0003F5A3CE73C5A7F3E1C1C08081C1C3E7FD4
:1000E00014227F22145F5F005F5F06097F017F009B
:1000F0006689956A606060606094A2FFA2940804BB
:100100007E040810207E201008082A1C08081C2ADB
:1001100008081E101010100C1E0C1E0C30383E3833
:1001200030060E3E0E06000000000000005F0000DA
:100130000007000700147F147F14242A7F2A12234B
:100140001308646236495620500008070300001C5B
:100150002241000041221C002A1C7F1C2A08083E64
:100160000808008070300008080808080000606077
:100170000020100804023E5149453E00427F4000E5
:1001800072494949462141494D331814127F1027BD
:10019000454545393C4A494931412111090736490C
:1001A000494936464949291E0000140000004034E0
:1001B00000000008142241141414141400412214E5
:1001C0000802015909063E415D594E7C1211127C0C
:1001D0007F494949363E414141227F4141413E7F6D
:1001E000494949417F090909013E414151737F084D
:1001F00008087F00417F41002040413F017F0814F3
:1002000022417F404040407F021C027F7F04081053
:100210007F3E4141413E7F090909063E4151215E31
:100220007F09192946264949493203017F01033FC5
:100230004040403F1F2040201F3F4038403F631454
:1002400008146303047804036159494D43007F4156
:1002500041410204081020004141417F0402010293
:1002600004404040404000030708002054547840B8
:100270007F284444383844444428384444287F384C
:100280005454541800087E090218A4A49C787F08CE
:1002900004047800447D40002040403D007F102849
:1002A000440000417F40007C047804787C0804040A
:1002B000783844444438FC1824241818242418FCA2
:1002C0007C08040408485454542404043F44243C47
:1002D0004040207C1C2040201C3C4030403C4428B6
:1002E0001028444C9090907C4464544C4400083650
:1002F00041000000770000004136080002010204BE
:10030000023C2623263C1EA1A161123A4040207ADD
:100310003854545559215555794122545478422125
:100320005554784020545579400C1E52721239555C
:100330005555593954545459395554545800004559
:100340007C410002457D420001457C407D12111236
:100350007DF0282528F07C545545002054547C54C9
:100360007C0A097F4932494949323A4444443A3285
:100370004A4848303A4141217A3A42402078009D2B
:10038000A0A07D3D4242423D3D4040403D3C24FFD7
:100390002424487E4943662B2FFC2F2BFF0929F686
:1003A00020C0887E090320545479410000447D41D7
:1003B0003048484A32384040227A007A0A0A727D30
:1003C0000D19317D2629292F28262929292630484B
:1003D0004D4020380808080808080808382F10C8B9
:1003E000ACBA2F102834FA00007B000008142A143D
:1003F0002222142A14085500550055AA55AA55AAB8
:10040000FF55FF55FF000000FF00101010FF001403
:100410001414FF001010FF00FF1010F010F014145F
:1004200014FC001414F700FF0000FF00FF1414F484
:1004300004FC141417101F10101F101F1414141F85
:1004400000101010F0000000001F101010101F10FE
:10045000101010F010000000FF10101010101010FD
:100460001010FF10000000FF140000FF00FF00004C
:100470001F10170000FC04F414141710171414F4C0
:1004800004F40000FF00F714141414141414F700FB
:10049000F7141414171410101F101F141414F4144C
:1004A0001010F010F000001F101F0000001F1400BB
:1004B0000000FC140000F010F01010FF10FF1414E6
:1004C00014FF141010101F00000000F010FFFFFFB9
:1004D000FFFFF0F0F0F0F0FFFFFF0000000000FF72
:1004E000FF0F0F0F0F0F3844443844FC4A4A4A3478
:1004F0007E02020606027E027E026355494163388F
:1005000044443C04407E201E2006027E020299A53F
:10051000E7A5991C2A492A1C4C7201724C304A4D9D
:100520004D303048784830BC625A463D3E494949D2
:10053000007E0101017E2A2A2A2A2A44445F44447B
:1005400040514A444040444A51400000FF0103E00A
:1005500080FF000008086B6B083612362436060F41
:10056000090F06000018180000001010003040FFAE
:100570000101001F01011E00191D1712003C3C3C27
:100580003C0000000000EF03038002CF0300C130F5
:10059000ED0464031281E803850078CB05392C0053
:1005A0003402F70120EA020000C00123C10110C596
:1005B000023E28C701863601483701003A0155B18D
:1005C000020018B603088227F20100260101E00F9D
:1005D0000F312B0C0E084EF1370710030E0900E106
:1005E0000F000E1403110731C148080F0C31360FEC
:1005F000118029800000000000240027002A00004C
:1006000000000800020100000304070000000000D1
:1006100000000001020408102040800102040810BC
:100620002001020408102000000000250028002BF3
:10063000000404040404040404020202020202038B
:10064000030303030300411411241FBECFEFD8E0BE
:10065000DEBFCDBF11E0A0E0B1E0ECEDF3E302C0FE
:1006600005900D92A635B107D9F723E0A6E5B1E0D4
:1006700001C01D92A63AB207E1F713E0C4E2D3E04D
:1006800004C02197FE010E94E119C332D107C9F7C6
:100690000E940E150C94EC190C940000AF92BF92BE
:1006A000CF92DF92EF92FF920F931F93CF93DF933E
:1006B0006C017B018B01040F151FEB015E01AE186D
:1006C000BF08C017D10759F06991D601ED91FC918F
:1006D0000190F081E02DC6010995892B79F7C501BC
:1006E000DF91CF911F910F91FF90EF90DF90CF900E
:1006F000BF90AF900895FC01538D448D252F30E0BD
:10070000842F90E0821B930B541710F0CF9608951E
:1007100001970895FC01918D828D981761F0A28D4B
:10072000AE0FBF2FB11D5D968C91928D9F5F9F7311
:10073000928F90E008958FEF9FEF0895FC01918DC7
:10074000828D981731F0828DE80FF11D858D90E034
:1007500008958FEF9FEF0895FC01918D228D892FD1
:1007600090E0805C9F4F821B91098F7399270895B9
:1007700085EC92E00E94AC0321E0892B09F420E093
:10078000822F089580E090E0892B29F00E94B80321
:1007900081110C9400000895FC01A48DA80FB92FBD
:1007A000B11DA35ABF4F2C91848D90E001968F7399
:1007B0009927848FA689B7892C93A089B1898C91B8
:1007C000837080648C93938D848D981306C0028807
:1007D000F389E02D80818F7D80830895EF92FF92D1
:1007E0000F931F93CF93DF93EC0181E0888F9B8D54
:1007F0008C8D98131AC0E889F989808185FF15C00E
:100800009FB7F894EE89FF896083E889F989808130
:100810008370806480839FBF81E090E0DF91CF91FF
:100820001F910F91FF90EF900895F62E0B8D10E021
:100830000F5F1F4F0F731127E02E8C8D8E110CC090
:100840000FB607FCFACFE889F989808185FFF5CFDB
:10085000CE010E94CC03F1CFEB8DEC0FFD2FF11DEB
:10086000E35AFF4FF0829FB7F8940B8FEA89FB8918
:1008700080818062CFCFCF93DF93EC01888D882376
:10088000B9F0AA89BB89E889F9898C9185FD03C0F3
:10089000808186FD0DC00FB607FCF7CF8C9185FFD8
:1008A000F2CF808185FFEDCFCE010E94CC03E9CF4E
:1008B000DF91CF91089590E0FC01E150FA4F24912F
:1008C000FC01ED5EF94F3491FC01EF5CF94FE491CE
:1008D000EE23C9F0222339F0233001F1A8F42130AE
:1008E00019F1223029F1F0E0EE0FFF1FE95DF94F19
:1008F000A591B4918FB7F894EC91611126C0309511
:100900003E233C938FBF08952730A9F02830C9F0CB
:10091000243049F7809180008F7D03C08091800052
:100920008F7780938000DFCF84B58F7784BDDBCF56
:1009300084B58F7DFBCF8091B0008F778093B0001E
:10094000D2CF8091B0008F7DF9CF3E2BDACFCF93FD
:10095000DF9390E0FC01ED5EF94F24918F5C994F9D
:10096000FC0184918823D1F090E0880F991FFC014D
:10097000EB50FA4FA591B491FC01E95DF94FC59197
:10098000D49161110EC09FB7F8948C91E22FE0953D
:100990008E238C932881E223E8839FBFDF91CF9140
:1009A00008958FB7F894EC91E22BEC938FBFF6CFBC
:1009B0003FB7F8948091CD019091CE01A091CF01E5
:1009C000B091D00126B5A89B05C02F3F19F0019624
:1009D000A11DB11D3FBFBA2FA92F982F8827BC0199
:1009E000CD01620F711D811D911D42E0660F771FC1
:1009F000881F991F4A95D1F708958F929F92AF92C1
:100A0000BF92CF92DF92EF92FF924B015C010E9466
:100A1000D8046B017C010E94D8046C197D098E09F1
:100A20009F09683E734081059105A8F321E0821A71
:100A30009108A108B10888EEC80E83E0D81EE11C19
:100A4000F11C81149104A104B10429F7FF90EF90E7
:100A5000DF90CF90BF90AF909F908F90089520919E
:100A60007E01260F3327331F21323105ECF420910C
:100A7000A201FC0190E080E0243069F082E008955A
:100A8000A0917E012191AC01425A5E4FA40FB52F77
:100A9000B11D2C930196861798F380917E01680F03
:100AA00060937E0180E0089581E0089508958FEFBE
:100AB0009FEF08958FEF9FEF08958091570190E089
:100AC0009195819591090895CF93DF93CB01EA0128
:100AD000642F0E942F05CE01DF91CF910895CF930F
:100AE000DF931F92CDB7DEB7698361E0CE01019637
:100AF0000E942F0581E090E00F90DF91CF91089543
:100B0000FC01A5A1B6A18C9192A589238C93A5A1E6
:100B1000B6A18C9191A5892B8C930895DC019396B5
:100B2000ED91FC919497908198968C918923808384
:100B30000895DC019396ED91FC919497908197969E
:100B40008C91892B80830895FF920F931F93CF93ED
:100B5000DF93EC018B018DA981110EC01EBD0DB478
:100B600007FEFDCF0EBD0DB407FEFDCFDF91CF9187
:100B70001F910F91FF9008958130C9F490E1F92EF3
:100B8000E9A1FAA1808117FF0FC09DA1892B808365
:100B9000CE010E949905CE010E948E05000F111F03
:100BA000FA94F110EDCFE2CF9EA18923F0CFEF8D23
:100BB000F8A11083CE010E948005EF8DF8A100837B
:100BC000CE01DF91CF911F910F91FF900C94800582
:100BD0000F931F93CF93DF93EC01162F8DA98111F3
:100BE00009C06EBD0DB407FEFDCFDF91CF911F91FF
:100BF0000F9108958130B1F408E0E9A1FAA1808154
:100C000017FF0DC09DA1892B8083CE010E949905FD
:100C1000110FCE010E948E05015079F7E6CF9EA1FB
:100C20008923F2CFEF8DF8A16083CE01DF91CF91C0
:100C30001F910F910C948005CF93DF93EC01ED8D04
:100C4000FE8D80819CA989238083CE010E94E805C6
:100C5000ED8DFE8D80819BA9892B8083DF91CF91C3
:100C60000895AF92BF92CF92DF92EF92FF920F93CF
:100C70001F93CF93DF93EC015B016A01215031098F
:100C80007901E60EF71E01501109040F151F6AE2E3
:100C90000E941C06B501CE010E94A405B701CE0139
:100CA0000E94A4056BE2CE010E941C06B601CE0193
:100CB0000E94A405B801CE010E94A4056CE2CE01F9
:100CC000DF91CF911F910F91FF90EF90DF90CF9028
:100CD000BF90AF900C941C06FC0185A9811104C043
:100CE00091A182A19CBD8DBD08951F93CF93DF93E9
:100CF000EC01162FE881F9810284F385E02D099536
:100D0000112371F06DADCE010E941C06E881F981BE
:100D10000688F789E02DCE01DF91CF911F910994CC
:100D20006EADF1CFAF92BF92CF92DF92EF92FF9272
:100D30000F931F93CF93DF93EC0177FD38C0888525
:100D40009985681779079CF557FD31C08A859B8581
:100D50004817590764F569017A015B01E881F98157
:100D60000284F385E02DCE010995E881F98104A480
:100D7000F5A5E02D01E010E021E030E0A701B5018C
:100D8000CE010995B601CE010E94A405E881F98142
:100D90000688F789E02DCE01DF91CF911F910F9149
:100DA000FF90EF90DF90CF90BF90AF900994DF91CC
:100DB000CF911F910F91FF90EF90DF90CF90BF9058
:100DC000AF9008958F929F92AF92BF92CF92DF9291
:100DD000EF92FF920F931F93CF93DF93EC014901A2
:100DE0005701E881F98104A4F5A5E02D0995940146
:100DF000D8010E94C3196B017C01C114D104E10424
:100E0000F10409F483C08DA9811115C081E0C81ACD
:100E1000D108E108F1088FEFC816D806E806F806F1
:100E200009F474C0BEBC0DB407FEFDCFAEBC0DB45A
:100E300007FEFDCFEBCF8130C9F581E0C81AD1089C
:100E4000E108F1088FEFC816D806E806F80609F49D
:100E50005DC00B2D18E0E9A1FAA1808107FF20C039
:100E60009DA1892B8083CE010E949905CE010E940D
:100E70008E05000F115079F70A2D18E0E9A1FAA1AB
:100E8000808107FF10C09DA1892B8083CE010E9425
:100E90009905CE010E948E05000F115079F7CDCF34
:100EA0009EA18923DFCF9EA18923EFCFBA1016C060
:100EB000CC0CDD1CEE1CFF1CEF8DF8A1B08281E094
:100EC000C81AD108E108F1088FEFC816D806E8065D
:100ED000F806E1F0CE010E948005F1CF81E0C81A4A
:100EE000D108E108F1088FEFC816D806E806F80621
:100EF00069F0EF8DF8A1B082CE010E948005EF8DE0
:100F0000F8A1A082CE010E948005E8CFDF91CF91A9
:100F10001F910F91FF90EF90DF90CF90BF90AF9017
:100F20009F908F9008958F929F92AF92BF92CF9291
:100F3000DF92EF92FF920F931F93CF93DF935C01A9
:100F40004B016A01E90177FD52C0DC0118968D91D1
:100F50009C91681779070CF04AC0209709F447C0A4
:100F600037FF07C0C9010196C80ED91ED195C1959A
:100F7000D109F50182859385C816D906C4F5A60165
:100F80004C0F5D1F9A012150310937FD30C0D7FE4B
:100F900003C0EA01D12CC12C281739071CF0EC0141
:100FA000CC19DD09D501ED91FC910284F385E02D8A
:100FB000C501099578018E0121E030E0A601B40158
:100FC000C5010E94E206D501ED91FC910688F789E2
:100FD000E02DC501DF91CF911F910F91FF90EF9010
:100FE000DF90CF90BF90AF909F908F900994DF914A
:100FF000CF911F910F91FF90EF90DF90CF90BF9016
:10100000AF909F908F9008958F929F92AF92BF92D2
:10101000CF92DF92EF92FF920F931F93CF93DF93C4
:101020005C016B014A01E90157FD52C0DC011A96CF
:101030008D919C91481759070CF04AC0209709F4EC
:1010400047C037FF07C0C9010196C80ED91ED19508
:10105000C195D109F50180859185C816D906C4F5D9
:10106000A6014C0F5D1F9A012150310937FD30C098
:10107000D7FE03C0EA01D12CC12C281739071CF078
:10108000EC01CC19DD09D501ED91FC910284F385C9
:10109000E02DC5010995780101E010E09E01A40151
:1010A000B601C5010E94E206D501ED91FC910688CA
:1010B000F789E02DC501DF91CF911F910F91FF902E
:1010C000EF90DF90CF90BF90AF909F908F9009945A
:1010D000DF91CF911F910F91FF90EF90DF90CF9014
:1010E000BF90AF909F908F9008958F929F92AF92F4
:1010F000BF92CF92DF92EF92FF920F931F93CF9305
:10110000DF934C016B015A01E901209709F46CC08F
:101110000115110509F468C037FF07C0C901019620
:10112000C80ED91ED195C195D109F401A085B1850C
:10113000CA16DB060CF058C017FF07C0C80101969D
:10114000A80EB91E119501951109F40182859385A8
:10115000A816B9060CF048C0F601EC0FFD1FAF0150
:101160004150510957FD40C0B501600F711F9B01EF
:101170002150310937FD38C0D7FE03C0EF01D12C13
:10118000C12CB7FE03C08B01B12CA12C4A175B0701
:101190001CF0ED01CC19DD09281739071CF08C0172
:1011A0000A191B09D401ED91FC910284F385E02D0D
:1011B000C40109959E01A501B601C4010E94E20681
:1011C000D401ED91FC910688F789E02DC401DF91EF
:1011D000CF911F910F91FF90EF90DF90CF90BF9034
:1011E000AF909F908F900994DF91CF911F910F91B5
:1011F000FF90EF90DF90CF90BF90AF909F908F9037
:101200000895EF92FF920F931F93CF93DF9377FD93
:1012100032C0DC011896ED91FC916E177F075CF5EA
:101220002115310541F137FF07C0F90131964E0F05
:101230005F1F319521953109DC011A96ED91FC91E2
:101240004E175F07C4F4EA01C20FD31FDE011197E6
:10125000B7FD11C057FF03C09E0150E040E0AE173C
:10126000BF071CF09F01241B350B7801890121E089
:1012700030E00E94E206DF91CF911F910F91FF9025
:10128000EF900895EF92FF920F931F93CF93DF9308
:1012900057FD31C0DC011A96ED91FC914E175F07A6
:1012A00054F52115310539F137FF07C0F9013196A1
:1012B0006E0F7F1F319521953109DC011896ED9154
:1012C000FC916E177F07BCF4EB01C20FD31FDE0148
:1012D0001197B7FD10C077FF03C09E0170E060E07A
:1012E000AE17BF071CF09F01261B370B780101E0EA
:1012F00010E00E94E206DF91CF911F910F91FF90C5
:10130000EF9008958F929F92AF92BF92CF92DF920B
:10131000EF92FF920F931F93CF93DF934701211515
:10132000310509F44BC00115110509F447C037FF19
:1013300007C0F90131966E0F7F1F31952195310954
:10134000DC011896AD90BC906A157B05BCF517FFC3
:1013500007C0F80131964E0F5F1F119501951109D5
:10136000DC011A96ED91FC914E175F073CF56B017D
:10137000C20ED31EE6012197D7FD20C07A01E00EF0
:10138000F11ED7011197B7FD19C077FF03C0960171
:1013900070E060E057FF03C0870150E040E0CA15ED
:1013A000DB051CF09501261B370BAE17BF071CF0A1
:1013B0008F01041B150B74010E94E206DF91CF918F
:1013C0001F910F91FF90EF90DF90CF90BF90AF9063
:1013D0009F908F900895EF92FF920F931F93CF935A
:1013E000DF93EC0177FD22C088859985681779071E
:1013F000ECF457FD1BC08A859B8548175907B4F448
:101400007901E881F98104A4F5A5E02D01E010E05F
:1014100021E030E0CE010995B701CE01DF91CF91F7
:101420001F910F91FF90EF900C94A405DF91CF9145
:101430001F910F91FF90EF900895CF93DF93EC01F0
:101440000E946C068FA987FD06C0EB8DFC8D808104
:101450009AA989238083DF91CF9108950895AF924F
:10146000BF92CF92DF92EF92FF920F931F93CF9391
:10147000DF93EC01E62E8A01A22E0E946C068FA952
:1014800087FD06C0EB8DFC8D80819AA9892380831E
:10149000ED8DFE8D80819CA9892380836E2DCE01E8
:1014A0000E94E805ED8DFE8D80819BA9892B8083AC
:1014B000D12CC12CB12CCA14DB04E4F48DA9780121
:1014C000823079F488A9882361F0F80161917191E3
:1014D0007F01CE010E94A405FFEFCF1ADF0A87012A
:1014E000EACFFFEFEF1AFF0AF8016491CE010E94E4
:1014F000E805F2CF8FA987FD06C0EB8DFC8D8081BA
:1015000099A9892B8083DF91CF911F910F91FF9033
:10151000EF90DF90CF90BF90AF900895611106C01B
:1015200060E220E050E040E00C942F0A61E2F9CF45
:10153000FF920F931F93CF93DF93EC01F62E8A0156
:101540000E946C068FA987FD06C0EB8DFC8D808103
:101550009AA989238083ED8DFE8D80819CA98923A2
:1015600080836F2DCE010E94E805ED8DFE8D808178
:101570009BA9892B80838DA9F801823099F0608125
:10158000CE010E94E8058FA987FD06C0EB8DFC8D7A
:10159000808199A9892B8083DF91CF911F910F9131
:1015A000FF90089588A9882351F360817181CE014D
:1015B0000E94A405E8CFCF93DF931F92CDB7DEB78B
:1015C000FC016370668B623071F0633009F188E46E
:1015D000613051F488E2898380E491E091878087CB
:1015E00080EF90E008C088E8898380EF90E09187E1
:1015F000808780E491E093878287AE014F5F5F4FE1
:1016000066E3CF010E94980A0F90DF91CF91089571
:1016100088EEE1CFFC0187A987FD06C0A38DB48DBC
:101620009C9181A9892B8C9308950895FC01637086
:10163000668B8481958126813781613039F06330F2
:1016400029F0918780873387228708953187208703
:101650009387828708952F923F924F925F926F9265
:101660007F928F929F92AF92BF92CF92DF92EF9232
:10167000FF920F931F93CF93DF93CDB7DEB76A9797
:101680000FB6F894DEBF0FBECDBF9A8F898F7A83D5
:1016900069834A01D22E18870F833701BC2CDC01E5
:1016A00059962D913C915A972115310509F015C194
:1016B00018968D919C911997681779070CF0D7C1EE
:1016C0001A968D919C91481759070CF0D0C14C2C5B
:1016D000512CB6E0CB9E600D711D11247C876B8769
:1016E000161617060CF0C3C1EA2DF0E0FA87E98759
:1016F00093E0EE0FFF1F9A95E1F7F88BEF87CF018C
:10170000840F951F181619060CF0B1C1A98DBA8D5A
:1017100058968C91811104C0BFEABD1508F4D3948A
:10172000A98DBA8DED91FC9111970284F385E02D7E
:10173000CD010995B5E0DB9EC0011124E981FA8154
:10174000FC83EB83312C212C9C012A573F4F388F8F
:101750002F8B4A2D50E05E8B4D8BEF89F88DE20D7B
:10176000F31D44919E828D82D12CC12C69817A8196
:10177000620D731D7A8B698B842F90E09C8B8B8B11
:10178000E98DFA8DA081B18140FF82C0F1E0BF12E6
:101790006FC0AF126DC01C96ED91FC912F81388502
:1017A000A4014C0D5D1D69897A89898D9A8D0995F1
:1017B000EB89FC89F595E7954E2F5FEFC51AD50AA1
:1017C0006D817E818D899E89680F791F7E836D83EF
:1017D00098E0C916D10481F6AFEF2A1A3A0AEB81D4
:1017E000FC81E40DF51DFC83EB83F5E02F1631043D
:1017F00009F0B3CF2F81388526153705B9F0A98DAB
:10180000BA8DED91FC91B1E0BB1257C0AB1255C03F
:1018100069817A816B5F7F4F0088F189E02D8301B8
:1018200028E030E0A401898D9A8D0995A98DBA8DA3
:10183000ED91FC9111970688F789E02DCD016A960C
:101840000FB6F894DEBF0FBECDBFDF91CF911F91D1
:101850000F91FF90EF90DF90CF90BF90AF909F904F
:101860008F907F906F905F904F903F902F90099452
:101870001E96ED91FC91EF80F88409851A859201FE
:101880004D815E816B817C81898D9A8D099590CF88
:101890002F8138852615370509F48ACF31E0B31238
:1018A00007C0A31205C01C96ED91FC91930178CF5F
:1018B0001E96ED91FC917301E0CF6B857C856419D8
:1018C00075090684F785E02D73010F85188992014B
:1018D000A401898D9A8D0995A9CFF9013496949127
:1018E000329745915491D91AB7E0DB9E400D511DB6
:1018F0001124F901259134913C8B2B8BFA01259011
:101900003490FA013296749031963491398B329634
:1019100064903196449041E04C1518F04A1508F057
:101920007FC0662D062C000C770B7C836B83842D87
:10193000042C000C990B9E838D83A98DBA8DED919B
:10194000FC9111970284F385E02DCD010995512C6E
:10195000D12CC12CEA2DF0E0FA87E9872B2D30E05D
:101960003C872B87A401440D511D47FC5A95588F85
:101970004F8B69817A81660D711D67FC7A957E8730
:101980006D877989C71608F051CF2C2D30E04D8135
:101990005E81420F531FA985BA854A9FC0014B9FA4
:1019A000900D5A9F900D1124FC01E80DF91DF88B44
:1019B000EF87852D612C4F89588D420F531F5E8B09
:1019C0004D8B671408F050C044244394480E877030
:1019D00041F4C1010196EB89FC89E20DF31DD4901D
:1019E0001C01D7FE19C0A98DBA8DED91FC91662D11
:1019F00070E0B1E0BB1219C0AB1217C02D853E8557
:101A0000620F731F0484F585E02D2F8138854D8981
:101A10005E89898D9A8D0995DD0C6394842DD1CFD3
:101A20001E821D821C821B8288CF4B815C81640FC9
:101A3000751FAB85BC856A9FC0016B9F900D7A9F17
:101A4000900D112469817A81680F791F0684F785CA
:101A5000E02DEF80F88409851A859D014F8558890E
:101A6000898D9A8D0995D8CF570CC3948ACF6A96E1
:101A70000FB6F894DEBF0FBECDBFDF91CF911F919F
:101A80000F91FF90EF90DF90CF90BF90AF909F901D
:101A90008F907F906F905F904F903F902F90089520
:101AA0008F929F92AF92CF92EF92FF920F931F93DC
:101AB000CF93DF93EC01262F898D9A8D009709F043
:101AC00051C06A30D1F41D861C868D8948E0849F00
:101AD000900111248E859F85820F931F9F878E878B
:101AE00081E090E0DF91CF911F910F91FF90EF90F7
:101AF000CF90AF909F908F9008956D3089F3CC88F0
:101B0000AD888F898823C1F08C859D8536E0C39E82
:101B1000800D911D1124488559854817590764F493
:101B20004E855F851D861C8638E0A39EC00111246A
:101B3000840F951F9F878E87EA88FB8808891989FB
:101B40004E855F856C857D85CE010E942B0B2C898F
:101B50008C859D8546E0249F800D911D11249D87D5
:101B60008C87BECF6A3069F41D861C86FC013896CE
:101B7000E4912D898E859F85E29F800D911D112412
:101B8000ADCF6D3009F4ACCFFC01349634916317BE
:101B900008F4A6CF3296E491E61708F4A1CFFC0131
:101BA000329685909490462F431B342F47E0349F04
:101BB000800C911C1124F401329634913196E491F9
:101BC0003323A9F1EE2399F1CC88F4013596E49101
:101BD000AD884F89442301F10E2E000CFF0BE30F5B
:101BE000F11DCE9EA001CF9E500D11246C857D85E8
:101BF000460F571F68857985641775076CF44E8505
:101C00005F851D861C86FC013896E491AE9E400DD2
:101C1000511D11245F874E87EA88FB88088919893E
:101C20004E855F856C857D85CE010E942B0BF4016E
:101C30003496E4912C898C859D85E29F800D911DC1
:101C400011248DCF6F927F928F929F92AF92BF920D
:101C5000CF92DF92EF92FF920F931F93CF93DF9378
:101C6000EC016B015A0139014801E881F9810284D4
:101C7000F385E02D0995E881F9810288F389E02D4B
:101C800087019301A501B601CE010995A501480D73
:101C9000591D41505109E881F9810288F389E02DED
:101CA0009301B601CE010995E881F9810088F18997
:101CB000E02D9401A501B601CE010995C60CD71CF3
:101CC000B60161507109E881F9810088F189E02D40
:101CD0009401A501CE010995E881F9810688F7896B
:101CE000E02DCE01DF91CF911F910F91FF90EF90EA
:101CF000DF90CF90BF90AF909F908F907F906F902C
:101D000009946F927F928F929F92AF92BF92CF92DF
:101D1000DF92EF92FF920F931F93CF93DF935C01BB
:101D2000EB016A01490138018701DC01ED91FC9169
:101D30006217730719F5641675062CF0962D872D1A
:101D40003A01C92ED82E9601261937092F5F3F4F29
:101D5000068CF78DE02DA301BE01C5010995DF9129
:101D6000CF911F910F91FF90EF90DF90CF90BF9098
:101D7000AF909F908F907F906F9008954615570574
:101D800091F42617370724F0892D4B01C22FD82F45
:101D90009E01281939092F5F3F4F00A0F1A1E02DC6
:101DA000A601B401DACF0284F385E02D0995D501AF
:101DB000ED91FC910488F589E02D83019401A60141
:101DC000BE01C5010995D501ED91FC910688F78901
:101DD000E02DC501DF91CF911F910F91FF90EF9002
:101DE000DF90CF90BF90AF909F908F907F906F903B
:101DF0000994EF92FF920F931F93DC011A960D91B5
:101E00001C911B9718962D913C911997ED91FC917F
:101E100002A0F3A1E02D7B0150E040E070E060E023
:101E200009951F910F91FF90EF9008954F925F9247
:101E30006F927F928F929F92AF92BF92CF92DF92DA
:101E4000EF92FF920F931F93CF93DF936C012B01BF
:101E50005A0139014801DC01ED91FC910284F385BE
:101E6000E02D0995E201640C751CD601ED91FC9101
:101E7000C615D7055CF40088F189E02D870194012F
:101E8000A501BE01C60109952196EFCF0688F78905
:101E9000E02DC601DF91CF911F910F91FF90EF9040
:101EA000DF90CF90BF90AF909F908F907F906F907A
:101EB0005F904F9009948F929F92AF92BF92CF9272
:101EC000DF92EF92FF920F931F93CF93DF93EC017A
:101ED0005B014A016901E881F9810284F385E02D03
:101EE000099595012C0D3D1D21503109E881F9819D
:101EF0000488F589E02D78018401A401B501CE01A3
:101F00000995E881F9810688F789E02DCE01DF91F6
:101F1000CF911F910F91FF90EF90DF90CF90BF90E6
:101F2000AF909F908F9009948F929F92AF92BF92A3
:101F3000CF92DF92EF92FF920F931F93CF93DF9395
:101F4000EC015B014A0169017801E881F9810284B1
:101F5000F385E02D0995C80CD91C860101501109A3
:101F6000E881F9810488F589E02D9501A401B50186
:101F7000CE010995E881F9810688F789E02DCE0127
:101F8000DF91CF911F910F91FF90EF90DF90CF9055
:101F9000BF90AF909F908F900994EF92FF920F9314
:101FA0001F93DC01ED91FC9102A0F3A1E02D0995B6
:101FB0001F910F91FF90EF9008950F931F93DC01F5
:101FC000ED91FC9100A0F1A1E02D09951F910F91D9
:101FD00008950F931F93DC01ED91FC91068CF78D12
:101FE000E02D09951F910F910895DC01ED91FC9171
:101FF0000084F185E02D09942F923F924F925F92D9
:102000006F927F928F929F92AF92BF92CF92DF9208
:10201000EF92FF920F931F93CF93DF9300D000D0E6
:1020200000D0CDB7DEB73C016A013E832D83FC8230
:10203000EB825801A41AB50AB7FE03C0B194A1946B
:10204000B1088D809E80861A970A97FE03C09194EE
:10205000819491088A149B045CF0902F812F0D814C
:102060001E819D838E839C2D8D2D6B01692F782F72
:102070000C151D055CF09D818E817E836D83692F1B
:10208000782F902F812F8601C92ED82E1601201A65
:10209000310A2B012D813E81421A530A57FE03C09B
:1020A000519441945108710137FE03C03FEFE31A88
:1020B000F30AF594E7948D819E81861797075CF566
:1020C000A1E0B0E0BA83A983C016D1064CF1D301D8
:1020D000ED91FC910484F585E02D2B813C81A801D4
:1020E0006D817E818A149B041CF04D815E81B80154
:1020F000C3010995E418F508F7FE0AC02D813E8159
:1021000089819A81280F391F3E832D83E20CF31CAD
:102110000F5F1F4FD9CF2FEF3FEF3A832983D4CFE3
:1021200026960FB6F894DEBF0FBECDBFDF91CF91DC
:102130001F910F91FF90EF90DF90CF90BF90AF90E5
:102140009F908F907F906F905F904F903F902F90D7
:102150000895089590E080E008958F929F92AF9245
:10216000BF92CF92DF92EF92FF920F931F93CF9384
:10217000DF938C017B014A016901D0E0C0E08CE271
:10218000A82EBB24B394C815D9057CF4A5014C1B1B
:102190005D0BD801ED91FC910484F585E02D96014D
:1021A000B701C80109952196EECFDF91CF911F911C
:1021B0000F91FF90EF90DF90CF90BF90AF909F90E6
:1021C0008F9008950E94E7191F93CF93DF9385EDB9
:1021D0008093BC0080915A0190915B01A0915C01B9
:1021E000B0915D010796A11DB11D23E0B695A7959D
:1021F000979587952A95D1F72091BC0024FD03C0BF
:102200001092A20152C040915A0150915B0160911D
:102210005C0170915D01452B462B472B69F30097BC
:10222000A105B10541F025E32A95F1F700000197DA
:10223000A109B109E1CF80915901C1E0C0935801D2
:10224000882399F1D091B8001091BA008091BC0018
:102250008A7B8093BC0060E082E10E945B0460E0C6
:1022600083E10E945B041092A201C093A40110922A
:10227000A30161E082E10E945B0461E083E10E94CE
:102280005B048091B9008E7F8093B9008091B90082
:102290008D7F8093B90088E48093B80085E48093B3
:1022A000BC001093BA00D093B800DF91CF911F917A
:1022B0000895CF92DF92EF92FF920F931F93CF93E7
:1022C000DF93EC016A017B01C114D104E104F10444
:1022D00031F4C12C42E1D42E4AE7E42EF12C8FA92F
:1022E00087FD07C061E00E94A70461E08FA90E94FA
:1022F0005B0461E088AD0E94A70461E088AD0E94A4
:102300005B048DA98111A3C040E052E16AE770E04F
:10231000C416D506E606F70640F4769567955795F8
:1023200047958F5F8630A1F787E0982F906A969542
:1023300099A3809581708AA31BA21CA21DA21EA234
:102340001FB7F89480915601811127C0EBE3F6E0A6
:102350008491EDE1F6E09491E82FF0E0EE0FFF1F9D
:10236000EB50FA4FA591B491EC91E92321F461E08F
:102370008AE00E945B0461E08AE00E94A7048CB5B9
:1023800080618CBD8CB580648CBD61E08DE00E9465
:10239000A70461E08BE00E94A704809156018F5F43
:1023A000809356011FBF8EA987FD21C061E00E9466
:1023B000A70461E08EA90E945B0464E670E080E0FF
:1023C00090E00E94FD0460E08EA90E945B0464E638
:1023D00070E080E090E00E94FD0461E08EA90E9420
:1023E0005B0468EC70E080E090E00E94FD048EA940
:1023F00087FF0DC020E050E040E061E0CE010E9488
:102400002F0A66E970E080E090E00E94FD0406E893
:1024100015E0C8010196F8016491662309F463C0D0
:102420000E5F1F4FFC01F490EF2CE894E7F82E2D7F
:10243000A801CE010E942F0A0E0D111DF7FEE9CF53
:1024400066E970E080E090E00E94FD04E2CF01E3E5
:1024500016E0F12C8130B9F461E08AA50E94A7044E
:1024600060E08AA50E945B0461E08CA50E94A7043D
:1024700060E08CA50E945B048BA587FD94CF60E093
:102480000E94A70490CFF8018491E82FF0E0EE0FAE
:10249000FF1FE95DF94F859194912F8D38A1281781
:1024A000390741F461E08F2D0E94A70460E08F2D71
:1024B0000E945B04F3940F5F1F4FF4E1FF12E3CF20
:1024C00061E08EA50E94A70461E08EA50E945B04D6
:1024D0008FA587FD68CF61E00E94A70461E08FA50A
:1024E0000E945B0460CF80EF90E09987888780E44A
:1024F00091E09B878A87DF91CF911F910F91FF9089
:10250000EF90DF90CF9008951F920F920FB60F9229
:1025100011242F933F934F935F936F937F938F93E8
:102520009F93AF93BF93EF93FF9385EC92E00E944C
:10253000CC03FF91EF91BF91AF919F918F917F91CC
:102540006F915F914F913F912F910F900FBE0F9020
:102550001F9018951F920F920FB60F9211242F9370
:102560008F939F93EF93FF93E091D502F091D60262
:102570008081E091DB02F091DC0282FD1BC0908142
:102580008091DE028F5F8F732091DF02821741F00E
:10259000E091DE02F0E0EB53FD4F958F8093DE0279
:1025A000FF91EF919F918F912F910F900FBE0F9000
:1025B0001F9018958081F4CF1F920F920FB60F9243
:1025C00011242F933F938F939F93AF93BF93809149
:1025D000C9019091CA01A091CB01B091CC01309179
:1025E000C80123E0230F2D3758F50196A11DB11D19
:1025F0002093C8018093C9019093CA01A093CB0195
:10260000B093CC018091CD019091CE01A091CF01EA
:10261000B091D0010196A11DB11D8093CD01909381
:10262000CE01A093CF01B093D001BF91AF919F9104
:102630008F913F912F910F900FBE0F901F90189583
:1026400026E8230F0296A11DB11DD2CF1F920F9233
:102650000FB60F9211242F933F934F935F936F9375
:102660007F938F939F93AF93BF93EF93FF9380914B
:10267000B900887F803609F44AC0F0F5883209F441
:10268000A5C018F5803109F499C0B8F4882309F47D
:10269000F5C0883009F492C0FF91EF91BF91AF91DE
:1026A0009F918F917F916F915F914F913F912F916A
:1026B0000F900FBE0F901F901895883109F486C0B7
:1026C000803251F78093A10114C0803409F49BC07B
:1026D00040F48033B9F38833F9F68093A10185EC97
:1026E000AEC0803509F483C0883509F494C08834BD
:1026F00099F60E94E410D0CF883909F48AC038F5E1
:10270000883729F050F4883611F0803729F683E0B5
:102710008093A2011092A00155C0883809F479C0B5
:10272000803919F0803809F0B7CF8091A00180324C
:1027300008F06FC0E091A00181E08E0F8093A001AE
:102740008091BB00F0E0E058FE4F80833BC0803BAF
:1027500039F0D0F4803A09F477C0883A09F09CCF78
:1027600084E08093A20110927F0110927E01F0E03C
:10277000E0E0099580917E0181110FC081E0809396
:102780007E0110925E0109C0803C09F4A8CF883C0C
:1027900009F4A5CF883B09F07FCFE0917F0181E06C
:1027A0008E0F80937F01F0E0E25AFE4F808180938C
:1027B000BB0090917F0180917E0129C08091C7016B
:1027C0008093BB0085EC8093BC0066CF9091C601DE
:1027D0008091C501981758F5E091C60181E08E0FF0
:1027E0008093C601F0E0EB55FE4F8081E9CFE09188
:1027F000C60181E08E0F8093C6018091BB00F0E09E
:10280000EB55FE4F80839091C6018091C5019817CA
:10281000C8F285E8D8CFE091C60181E08E0F8093A1
:10282000C6018091BB00F0E0EB55FE4F80838091A4
:10283000A40181115ECF81E08093A30184EA80939B
:10284000BC001092A20128CF85EC8093BC001092AE
:10285000A2018091A001803230F4E091A001F0E06B
:10286000E058FE4F10826091A00170E080E891E096
:10287000F0E0E0E009951092A0010ECF1092A101C6
:1028800038CFE5ECF2E01382128288EE93E0A0E00C
:10289000B0E084839583A683B78384E091E091833D
:1028A000808385EC90E09587848784EC90E097871F
:1028B000868780EC90E0918B808B81EC90E0938B0D
:1028C000828B82EC90E0958B848B86EC90E0978BEA
:1028D000868B118E128E138E148EA3E6B3E01396A0
:1028E0001C921E92129720EF30E015963C932E9387
:1028F000149780E491E017969C938E9316971996FF
:102900003C932E9318971B969C938E931A975696EA
:102910001C9256971D961C921E921C971F961C92F5
:102920001E921E9781E055968C93559754968C93E2
:1029300054972FEF3FEF53963C932E935297519617
:102940003C932E93509757968C93579758961C927A
:1029500058975A961C921E925997D5961C92D597C5
:1029600089E0D6968C93D69788E0D7968C93D797A4
:102970008AE0D8968C93D897DA961C921E92D997B3
:10298000DC961C921E92DB97DD961C92DD97DE96FC
:102990001C92DE971092A2031092A3031092A4033C
:1029A0001092A50382E693E090969C938E935F9796
:1029B000EBE3F6E0E491F0E0EE0FFF1FE95DF94F85
:1029C000859194915E969C938E935D97EDE1F6E0F0
:1029D0008491D3968C93D397E9E3F6E0E491F0E009
:1029E000EE0FFF1FE95DF94F259134915C963C9302
:1029F0002E935B97EBE1F6E0E491D196EC93D197BF
:102A0000E095D296EC93D297E82FE095D496EC938C
:102A1000D49786E191E08D939C930895CF93DF93B3
:102A2000CDB7DEB763970FB6F894DEBF0FBECDBF4C
:102A3000789484B5826084BD84B5816084BD85B599
:102A4000826085BD85B5816085BD80916E008160A5
:102A500080936E001092810080918100826080934B
:102A6000810080918100816080938100809180004D
:102A70008160809380008091B10084608093B10078
:102A80008091B00081608093B00080917A00846072
:102A900080937A0080917A00826080937A0080919E
:102AA0007A00816080937A0080917A0080688093B8
:102AB0007A001092C100E091D502F091D60282E036
:102AC0008083E091D102F091D2021082E091D30292
:102AD000F091D4028FEC80831092DD02E091D90254
:102AE000F091DA0286E08083E091D702F091D8027B
:102AF000808180618083E091D702F091D80280814B
:102B000088608083E091D702F091D802808180684C
:102B10008083E091D702F091D80280818F7D8083FD
:102B20004DE050E064E471E085EC92E00E944E03D9
:102B300042E050E062E571E085EC92E00E944E03D5
:102B400040E050E0BA0183E693E00E94591180E131
:102B50008983AE014F5F5F4F69ED83E693E00E948A
:102B6000980A83E693E00E941D0AE0918003F091A9
:102B70008103808190919703892380836AE083E6B3
:102B800093E00E94E805E0918003F0918103808149
:102B900090919603892B80838091980381118BC13A
:102BA0001EBC00000DB407FEFDCF8EB583E693E09A
:102BB0000E940A0B86E090E099878887A1E0B0E048
:102BC000BB83AA836A817B81660F771F072E000C67
:102BD000880B990B0E943A186C837D838E839F83A8
:102BE000E5EDF1E0FB8BEA8B1F0110E000E08A814C
:102BF0009B81092E000CAA0BBB0B8A879B87AC8795
:102C0000BD8788859985092E000CAA0BBB0B8E8782
:102C10009F87A88BB98BB801012E000C880B990BEC
:102C20000E943A182BE73BE546ED5CE30E9405194C
:102C30006B017C016A857B858C859D850E943A1895
:102C4000A70196010E9405190E94FD172B013C0166
:102C50002C813D814E815F81C701B6010E9405191B
:102C60000E94FD174B015C016E857F8588899989DB
:102C70000E943A18A70196010E9405190E94FD17AB
:102C80006B017C0120E030E040EF51E4C301B20170
:102C90000E9405192B013C0120E030E040EA51E49C
:102CA000C501B4010E9405199B01AC01C301B20129
:102CB0000E9491174B015C0120E030E040E251E4BA
:102CC000C701B6010E9405199B01AC01C501B40101
:102CD0000E9491170E940218D1016D931D01462F89
:102CE000660F550B445C5F4F30E020E0B80183E68F
:102CF00093E00E9492060F5F1F4F003F110509F0FD
:102D00008ACF312C212CB101032C000C880B990B9C
:102D10000E943A182BE73BE546ED5CE30E9405195B
:102D20006A877B878C879D87E5EDF1E0FD83EC83E7
:102D3000C12CD12C760110E000E0AC81BD816D91F9
:102D4000BD83AC83062E000C770B880B990B0E9479
:102D50003A182B013C01B801012E000C880B990B8D
:102D60000E943A182A853B854C855D850E9405198D
:102D70004B015C010E94FD176E877F87888B998BC2
:102D8000C501B4010E9472194B015C012E853F857B
:102D900048895989C301B2010E940519A70196010A
:102DA0000E9491176B017C01A5019401C301B2013E
:102DB0000E9405199B01AC01C701B6010E94911741
:102DC0006B017C010F5F1F4F003F110509F0B5CF6C
:102DD00020E030E040E85CE30E9405199B01AC0173
:102DE00060E070E080E892E40E9490176093D10167
:102DF0007093D2018093D3019093D4010E9409185B
:102E000041E450E0461B510967FD539510E000E096
:102E10002EE130E0B10183E693E00E949307BFEF1B
:102E20002B1A3B0AECE32E16310409F06CCFAA8969
:102E3000BB894D91BB8BAA8B042E000C550B445CB7
:102E40005F4F2FEF3FEFB80183E693E00E949206B9
:102E50000F5F1F4F003F110551F710E000E02FEF0B
:102E60003FEF42E350E0B80183E693E00E94AD10EB
:102E70000F5F1F4F003F110591F710E000E030E0B9
:102E800020E046E450E0B80183E693E00E94AD10F4
:102E90000F5F1F4F003F110591F7EA81FB813196CB
:102EA000FB83EA8388859985019699878887389777
:102EB00009F088CEFFCF8130A9F480918E0387FD81
:102EC00075CE18E083E693E00E949905E0918203B5
:102ED000F0918303808183E693E00E948E05115078
:102EE00089F764CE8091920387FD60CEE0918A03DA
:102EF000F0918B03808190918F0389238083E091EF
:102F00008603F09187031082E0918403F09185039A
:102F10008081E0918603F09187038FEF808346CE16
:102F20005058BB27AA270E94A8170C94B7180E94D4
:102F30007E1838F00E94851820F039F49F3F19F46C
:102F400026F40C947B180EF4E095E7FB0C947518AE
:102F5000E92F0E94DC1858F3BA1762077307840739
:102F6000950720F079F4A6F50C94FE180EF4E09580
:102F70000B2EBA2FA02D0B01B90190010C01CA0133
:102F8000A0011124FF27591B99F0593F50F4503EDE
:102F900068F11A16F040A22F232F342F4427585FD0
:102FA000F3CF469537952795A795F0405395C9F7E8
:102FB0007EF41F16BA0B620B730B840BBAF09150A0
:102FC000A1F0FF0FBB1F661F771F881FC2F70EC03F
:102FD000BA0F621F731F841F48F487957795679512
:102FE000B795F7959E3F08F0B0CF9395880F08F0FE
:102FF0009927EE0F9795879508950E948E18E3956F
:103000000C94C8180E9409186894B1110C94FF1808
:1030100008950E94E41888F09F5798F0B92F9927D7
:10302000B751B0F0E1F0660F771F881F991F1AF0B3
:10303000BA95C9F714C0B13091F00E94FE18B1E002
:1030400008950C94FE18672F782F8827B85F39F001
:10305000B93FCCF3869577956795B395D9F73EF44C
:1030600090958095709561957F4F8F4F9F4F0895F4
:10307000E89409C097FB3EF4909580957095619512
:103080007F4F8F4F9F4F9923A9F0F92F96E9BB27C8
:103090009395F695879577956795B795F111F8CF44
:1030A000FAF4BB0F11F460FF1BC06F5F7F4F8F4FAF
:1030B0009F4F16C0882311F096E911C0772321F0A5
:1030C0009EE8872F762F05C0662371F096E8862F3D
:1030D00070E060E02AF09A95660F771F881FDAF794
:1030E000880F9695879597F9089597F99F6780E8D7
:1030F00070E060E008959FEF80EC089500240A944A
:103100001616170618060906089500240A941216C2
:1031100013061406050608950C947B180E94E41803
:10312000D8F3E894E0E0BB279F57F0F02AED3FE0AA
:1031300049EC06C0EE0FBB0F661F771F881F28F0F3
:10314000B23A62077307840728F0B25A620B730B16
:10315000840BE3959A9572F7803830F49A95BB0FFB
:10316000661F771F881FD2F790480C947C19092E90
:103170000394000C11F4882352F0BB0F40F4BF2BD2
:1031800011F460FF04C06F5F7F4F8F4F9F4F089512
:10319000EF93E0FF07C0A2EA2AED3FE049EC5FEBC6
:1031A0000E94A8170E94B7180F90039401FC905832
:1031B000E8E6F0E00C94881957FD9058440F551F2D
:1031C00059F05F3F71F04795880F97FB991F61F0A9
:1031D0009F3F79F087950895121613061406551F20
:1031E000F2CF4695F1DF08C0161617061806991F8C
:1031F000F1CF86957105610508940895E894BB2781
:1032000066277727CB0197F908950E9418190C9427
:10321000B7180E947E1838F00E94851820F0952378
:1032200011F00C9475180C947B1811240C94FF1851
:103230000E94DC1870F3959FC1F3950F50E0551F65
:10324000629FF001729FBB27F00DB11D639FAA27FB
:10325000F00DB11DAA1F649F6627B00DA11D661F4A
:10326000829F2227B00DA11D621F739FB00DA11D6B
:10327000621F839FA00D611D221F749F3327A00D25
:10328000611D231F849F600D211D822F762F6A2FC1
:1032900011249F5750409AF0F1F088234AF0EE0F26
:1032A000FF1FBB1F661F771F881F91505040A9F753
:1032B0009E3F510580F00C9475180C94FF185F3FE9
:1032C000E4F3983ED4F3869577956795B795F7958F
:1032D000E7959F5FC1F7FE2B880F911D9695879507
:1032E00097F908959F930E948E180F9007FCEE5F48
:1032F0000C94C8189F3F31F0915020F48795779532
:103300006795B795880F911D9695879597F90895BC
:103310009F938F937F936F93FF93EF939B01AC01E8
:103320000E940519EF91FF910E949C192F913F91E6
:103330004F915F910C940519DF93CF931F930F93D7
:10334000FF92EF92DF927B018C01689406C0DA2E27
:10335000EF010E941819FE01E894A591259135917D
:1033600045915591A6F3EF010E94A817FE01970120
:10337000A801DA9469F7DF90EF90FF900F911F9109
:10338000CF91DF9108950E94CB19332312F48A1B49
:103390009B0B0C94DC19A29FB001B39FC001A39FAB
:1033A000700D811D1124911DB29F700D811D11247E
:1033B000911D08950E94CB19B7FF0895821B930BAE
:1033C0000895EE0FFF1F0590F491E02D099481E020
:1033D00090E0F8940C94EC19F894FFCF00000000F2
:1033E000EE034E037B033B04AC038A039E03000001
:1033F0000000500D4E03AA10A91092061D0AEB09F9
:10340000820901094209FC0F0A0BDB0A8E0AAD1082
:10341000930704087508F90E810E220E5911310622
:10342000494C4939333431205465737421000D0AF5
:0234300000009A
:107E0000112484B714BE81FFF0D085E080938100F7
:107E100082E08093C00088E18093C10086E0809377
:107E2000C20080E18093C4008EE0C9D0259A86E02C
:107E300020E33CEF91E0309385002093840096BBD3
:107E4000B09BFECF1D9AA8958150A9F7CC24DD24C4
:107E500088248394B5E0AB2EA1E19A2EF3E0BF2EE7
:107E6000A2D0813461F49FD0082FAFD0023811F036
:107E7000013811F484E001C083E08DD089C08234E0
:107E800011F484E103C0853419F485E0A6D080C0E4
:107E9000853579F488D0E82EFF2485D0082F10E0AE
:107EA000102F00270E291F29000F111F8ED06801E7
:107EB0006FC0863521F484E090D080E0DECF843638
:107EC00009F040C070D06FD0082F6DD080E0C81688
:107ED00080E7D80618F4F601B7BEE895C0E0D1E017
:107EE00062D089930C17E1F7F0E0CF16F0E7DF06D8
:107EF00018F0F601B7BEE89568D007B600FCFDCFD4
:107F0000A601A0E0B1E02C9130E011968C91119780
:107F100090E0982F8827822B932B1296FA010C0160
:107F200087BEE89511244E5F5F4FF1E0A038BF0790
:107F300051F7F601A7BEE89507B600FCFDCF97BE46
:107F4000E89526C08437B1F42ED02DD0F82E2BD052
:107F50003CD0F601EF2C8F010F5F1F4F84911BD097
:107F6000EA94F801C1F70894C11CD11CFA94CF0C13
:107F7000D11C0EC0853739F428D08EE10CD085E9AC
:107F80000AD08FE07ACF813511F488E018D01DD067
:107F900080E101D065CF982F8091C00085FFFCCF94
:107FA0009093C60008958091C00087FFFCCF809118
:107FB000C00084FD01C0A8958091C6000895E0E648
:107FC000F0E098E1908380830895EDDF803219F02E
:107FD00088E0F5DFFFCF84E1DECF1F93182FE3DFCA
:107FE0001150E9F7F2DF1F91089580E0E8DFEE27F6
:047FF000FF270994CA
:027FFE00040479
:00000001FF
